:020000040800F2
:1000000018080020B5010008F72800085D2700083F
:10001000F5280008CD210008B133000800000000D9
:10002000000000000000000000000000B52B0008E8
:10003000672300080000000071290008992D0008BE
:10004000CF010008CF010008CF010008CF01000850
:10005000CF010008CF010008CF010008CF01000840
:10006000CF010008CF010008CF010008CF01000830
:10007000CF010008CF010008CF010008CF01000820
:10008000CF010008CF010008CF010008CF01000810
:10009000CF010008CF010008CF010008CF01000800
:1000A000CF010008CF010008CF010008CF010008F0
:1000B000ED2D0008192E0008CF010008CF0100081F
:1000C000CF010008CF010008CF010008CF010008D0
:1000D000CF01000869310008CD310008CF010008C8
:1000E000CF010008CF010008CF01000800F002F89E
:1000F00000F050F80AA090E8000C82448344AAF172
:100100000107DA4501D100F045F8AFF2090EBAE86F
:100110000F0013F0010F18BFFB1A43F0010318473B
:1001200094440000B4440000103A24BF78C878C159
:10013000FAD8520724BF30C830C144BF04680C60ED
:10014000704700000023002400250026103A28BF35
:1001500078C1FBD8520728BF30C148BF0B60704739
:10016000662904F03C81642900F06C80002070470F
:100170001FB500F0F7FC04000020002103F0BAFCDA
:10018000401C60600020002103F09EFCE0601FBD69
:1001900010B510BD00F0ACFF1146FFF7E9FF03F00A
:1001A000CDF900F0D3FF03B4FFF7F2FF03BC03F077
:1001B0004EF900000948804709480047FEE7FEE77E
:1001C000FEE7FEE7FEE7FEE7FEE7FEE7FEE7FEE707
:1001D00004480549054A064B704700009D2D00085C
:1001E000ED00000818020020180800201804002064
:1001F00018040020704700000FB4044910B503AA8A
:10020000029800F059FC10BC5DF814FB7800002047
:100210000FB41CB50C0007AA009001D02044401E6A
:10022000074B7B4469460190069800F024FC002CA3
:1002300003D06946002000F031FC1CBC5DF814FBC3
:10024000810800002DE9F041064600241068752958
:10025000314616A510D0AFF30080002802DA4042E4
:1002600013A507E031688A0701D512A502E0490706
:1002700004D511A5012401E0AFF3008000210A227A
:1002800006F1240709E0B0FBF2FCB0FBF2F302FB3D
:100290001C00303078541846491C0028F3D12346FE
:1002A0002A463046BDE8F04100F077B90000000072
:1002B0002D0000002B000000200000002DE9F04779
:1002C0004FF0000A89460446C0F820A02046E168A5
:1002D0008847002876D0252806D0D4E90121904708
:1002E000206A401C2062F1E7E1682046002588472B
:1002F000C4F81CA006460027C4F818A02A2E09D06E
:10030000304603F09DF838B304EB8708303EC8F858
:10031000186019E059F8041B204604EB870291612C
:10032000E1688847012F064618D1E069002820DAE5
:1003300025F020051DE0D8F8180000EB800006EB42
:1003400040003038C8F818002046E1688847064663
:1003500003F076F80028EED1012F0AD02E2E08D116
:100360002046E16888477F1C0646022F45F020059D
:10037000C4DBA069002803DA404245F00105A06112
:10038000E80701D025F01005B6B1A6F14100192803
:1003900002D8203645F400654A463146204625609D
:1003A0004D46FFF7DDFE58B1012806D0ED1D25F0C2
:1003B000070000F1080989E704E005F1040985E771
:1003C00030468AE7206ABDE8F08700000FB400B528
:1003D0008DB010A9099000910B904FF0FF300A905A
:1003E00000200C90064878440690064878446A46F7
:1003F00007900F9909A800F085FB0DB05DF814FB7C
:100400003B070000530700002DE9FF5F1D464FF03A
:10041000FF3B91464FF000085F46D5E90146A969C8
:1004200001987F1C8847296A824688470028F6D1B0
:10043000BAF1FF3F0CD0002E24F4C06419DD600631
:1004400014D5BAF12B0F09D0BAF12D0F0ED103E05C
:10045000584604B0BDE8F09F44F48064A96901984F
:100460007F1C8847761E8246002E02DDBAF1300FCF
:1004700003D0B9F1000F26D032E0A969761E0198A9
:100480007F1C44F400748847002E824605DDBAF1D3
:10049000780F06D0BAF1580F03D0B9F1000F10D081
:1004A0001EE0B9F1000F02D0B9F1100F18D1A969FF
:1004B000761E01987F1C24F4007488478246102021
:1004C00002E0082000E00A20814609E0A96908FB53
:1004D0000908761E01987F1C44F400748847824600
:1004E000002E05DD4946504600F0F8FA0028EDDA06
:1004F000E96901988847A00502D46FF00100A8E7D8
:10050000E00725D1600613D5600502D5C8F10000CB
:1005100000E0404629680A1D2A600968220501D5C5
:10052000087015E0220701D5088011E008600FE08F
:100530002868011D29600068210502D580F8008027
:1005400006E0210702D5A0F8008001E0C0F8008095
:1005500038467EE710B5431C02E010F8011B71B16C
:100560008107FAD14FF0013202C88C1A8C4314EA89
:10057000C211F9D0C01A0A0603D0C01E10BDC01A9D
:1005800010BD0A0401D0801E10BD0902FCD0401E1F
:1005900010BD70477047704770472DE9F0470D4612
:1005A00099469246044600F124080168880604D55D
:1005B000E06921F01001216000E00120A84201DD86
:1005C000471B00E00027A1697A1902EB0900081A0D
:1005D000A0612078C00602D42046AFF30080002638
:1005E00008E0D4E901211AF806009047206A401C6F
:1005F000761C20624E45F4DB2078C0060AD52046E2
:10060000AFF3008006E0D4E9012130209047206A52
:10061000401C2062381EA7F10107F4DC07E0D4E992
:10062000012118F805009047206A401C2062281E0E
:10063000A5F10105F3DC2046AFF300802078000629
:1006400002D50220BDE8F0870120FBE770472DE9C5
:10065000FF4F0C461E464FF0FF378BB0D2E900012A
:10066000DDF860800A908A46C1F30A5505B93D4617
:10067000002108464FF00000BAF1000F00F44000DE
:1006800005DA00EB80004FF4400101EA50004FEA28
:100690009059B9F1010F00DDB9460A9850EA4A00B5
:1006A0000ED044F61050A5F2FF3545432F14B8F193
:1006B000000F1ED07542291E1EDDC9F100021CE08C
:1006C000B8F1010F4FF0000001D0302103E0F243F8
:1006D00005E02154401CB042FBDB304600220021E3
:1006E00021540B99C1F80880C1E900200FB0BDE882
:1006F000F08FBD1B6D1CDEE74A4600DA694206A892
:1007000000F07CFC06AB93E8070003AB83E807002E
:1007100050460A9900F064FD8DE80700A0F50050EE
:100720001F3800900398002D0ADD42F21F014A464F
:100730000844002303A90390684600F0CDFF09E0B8
:10074000A0F500504A461F38002303A903906846CD
:1007500000F0D7FF8DE807000004000C03D04FF035
:10076000FF30410800E01046B8F1000F03D000222E
:10077000009215461EE0751E05D400F0F7F93032E0
:1007800062556D1EF9D5B3460122084302D00022FE
:100790007F1C04E02078302801D100227F1E002A2F
:1007A000099784D01DE0112D07DA00F0DFF930320F
:1007B00062556D1C50EA0102F5D1084302D0009841
:1007C000C8B10EE00021681E05E0235C625C635442
:1007D0002254401E491C8142F7DBAB46A81B401E39
:1007E0000990002004F80B000B98099AC0F80880C3
:1007F000C0E9002B7AE711264FF0000857E72DE9F2
:10080000F04F88460446D21D22F0070191B0D1E98D
:100810000001CDE90A0102F0FFFD02460B98C00F6E
:1008200001D02D2007E02068810701D52B2002E0B0
:10083000202101EAC000032A099001D0072A05DB24
:1008400003464146204600F0DFF90BE120788006A0
:1008500001D5E06900E00620B8F1650F814606D0B9
:10086000B8F1660F18D0B8F1670F70D131E00020F1
:10087000B9F1110F009001DB112301E009F101032F
:100880000AAA01A90CA8FFF7E2FEDDE90C70002618
:1008900009F10105834647E001204B4600904FF0E7
:1008A00000470AAA01A90CA8FFF7D1FEDDE90DB0A7
:1008B0000C995D46002610B909F101000D18B9EB3D
:1008C000050003D4C0F1FF3609F10105A5EB0900CD
:1008D0002BE0B9F1010F01DA4FF001090020B9F165
:1008E000110F0090484601DD112300E003460AAADB
:1008F00001A90CA8FFF7ABFEDDE90C704D46002600
:100900008346207800070AD4AB4500DA5D4601A88B
:10091000012D04DD411911F8011C302907D04F4584
:1009200002DA17F1040F04DA012082460FE06D1E8F
:10093000EEE7002F02DCED1B3E4403E0781CA842EA
:1009400000DD7D1CB81B00F1010A4FF00047207844
:10095000000703D4AA4501DB4FF0FF3A0021B7F1AD
:10096000004F0DF143088DF8431024D002202B23B3
:10097000002F01DA7F422D230A21021EA0F101007F
:1009800000DC5FB197FBF1FC97FBF1F201FB1C7CF3
:1009900017460CF1300C08F801CDEEE7A8F1010084
:1009A00003702188090501D5452100E06521A0F1EA
:1009B000010800F8011C09980FA9A1EB0807FF1D09
:1009C00000B10120411901EBEA70A1693844081A0D
:1009D000401EA0612078C00602D42046AFF30080FC
:1009E000099828B1D4E901219047206A401C20626F
:1009F0002078C00622D52046AFF300801EE0002EEE
:100A000004DBB34502DD01A8805D00E03020D4E9BD
:100A100001219047206A401C2062761CAAF1010047
:100A20005FEA000A0AD100F09DF8C0680168405CE6
:100A3000D4E901219047206A401C2062281EA5F1BC
:100A40000105DCDC07E0D4E9012118F8010B90472F
:100A5000206A401C2062381EA7F10107F3DC204603
:100A6000AFF30080032011B041E6000001694A1C89
:100A700002610878704700B58FB0CDE901310021DF
:100A8000059105497944CDE9031011466846FFF701
:100A900015FC0FB000BD0000E5FFFFFF0A6802F87B
:100AA000010B0A607047D1E900239A4202D2531C1D
:100AB0000B60107070470000074B70B50D467B440B
:100AC000FFF7D9FF0446284600F00AFB10B14FF0AB
:100AD000FF3070BD204670BD632A00003A2800D266
:100AE000303820F02002412A01D3A2F13700884299
:100AF00001D34FF0FF307047026811441378016052
:100B000018467047D16005497944516104497944D8
:100B1000116200211161114600F0B6B8EDFFFFFF30
:100B2000E5000000426842B1016811F8013B23B1C1
:100B3000521EC0E90012184670470121C160881E8C
:100B4000704742685AB1C368016843B983688B42F1
:100B500005D0491E521CC0E90012002070474FF01A
:100B6000FF30704700487047D801002030B5B0F121
:100B70000A024FEA900E71F100034EEA817EB0EB5B
:100B80000E0061EB91014FEA101E4EEA017E10EB60
:100B90000E0041EB11114FEA102E4EEA016E10EBE0
:100BA0000E0041EB11214FEA104E4EEA014E10EBC0
:100BB0000E0041EB1141401841F100014FEAD00015
:100BC00040EA41704FEAD10110EB80054FEA810401
:100BD00044EA907444EB01046D1944EB0404521B85
:100BE000A3414FF0000348BF0A3200D530BD401C7E
:100BF00041F1000130BD10B5044600F09FFA0068D5
:100C0000005D00F0010010BD2DE9F0411F460446D3
:100C100003260168072A01F4006004DB08B116A569
:100C200005E016A503E008B115A500E015A521F023
:100C300010002060A069C01EA0610FB1401EA0611D
:100C40002046AFF300804FB1D4E9012138469047E8
:100C5000206A401C2062C01C206206E0206AFAE77D
:100C6000D4E9012115F8010B9047761EF8D22046F1
:100C7000AFF30080BDE8F0814E414E006E616E0022
:100C8000494E4600696E66002DE9F34F4FF0000AA9
:100C90000C4656468DB001200C9001F10C000B90D3
:100CA00062690B9801219047051E2DD0252D2CD06F
:100CB000216A8847C0B162690B9801219047216A77
:100CC00088470028F7D16269411E0B98904700E0E1
:100CD000761CA1690D988847216A88470028F7D1BA
:100CE000E1690D988847DBE7A1690D988847A8421C
:100CF000074601D1761CD3E7E1690D9888477F1C30
:100D000002D1BAF1000F6FD06CE162690B98002735
:100D10003D46394690472A2804D162690B98012143
:100D200090470125DFF8D08262690B980121904736
:100D3000A0F130010A290AD24745E5DC07EB87011B
:100D400000EB4107303FDFD445F01005ECE7E90642
:100D500001D46FF000476C280AD04C2814D06828C2
:100D600015D06A280DD074281CD07A281AD01DE01E
:100D700062690B98012190476C2802D045F0040568
:100D800014E045F002050DE045F020050AE0626937
:100D90000B9801219047682802D045F0080505E02E
:100DA00045F4006562690B9801219047C4E9015739
:100DB00065283DD019DC58287AD00CDC452837D07E
:100DC00004DC252826D041289ED131E046282FD0AA
:100DD000472899D12CE05B2877D0612828D0632858
:100DE0007CD0642823D15AE0F7E06F2848D008DC93
:100DF00066281DD067281BD0692821D06E2816D1FF
:100E000027E0702845D0732868D0752847D0782807
:100E10000DD14DE0A1690D988847252805463FF47E
:100E200069AFE1690D9888476D1C3FF46AAFD9E05E
:100E30000D9923466A466FF00100AFF30080C6E0CB
:100E400045F0400023464FF000026060A80736D40A
:100E50003EE0E8077FF447AF2068011D216000688D
:100E6000290501D506701BE7290701D5068017E77C
:100E7000A90703D5F117C0E9006111E706600FE784
:100E800045F0400023464FF008026060A80716D4E2
:100E90001EE040F60E0125EA0100606016E045F014
:100EA000400023464FF00A026060A80707D40FE015
:100EB00045F040006060A80708D5234610220D9930
:100EC0006FF00100AFF3008081E007E010222346BD
:100ED0000D996FF00100FFF797FA78E04FF00009E5
:100EE00063284F46C8464B46CB4602D05B2807D006
:100EF00039E02079C00601D40120A060012732E04A
:100F00006269D4F80CB00B98012190475E2807D194
:100F10004FF0010949466269D4F80CB00B9890472C
:100F2000216939B900210A4603AB43F82120491C45
:100F30000829FADBD8B3216949B308F101086269CD
:100F40000B98012190475D28F4D1B9F1000F09D029
:100F5000002003A951F82020D24341F82020401C52
:100F60000828F7DB03AB2069002820794FEA40709E
:100F70001ED05B462246CDF80080CDE901970D9941
:100F800000286FF0010020DAAFF300801FE0C117E6
:100F900003AA00EBD1614B1121F01F0102EB830288
:100FA000411A13680120884003431360C7E719E022
:100FB0000D99224600286FF00100009702DAAFF386
:100FC000008004E0AFF3008001E0AFF30080002870
:100FD0000ADA401C06D10C9820B14FF0FF300FB058
:100FE000BDE8F08F5046FAE7E90701D10AF1010A9E
:100FF000064400200C9053E6CCCCCC0C2DE9F047F5
:10100000814616468AB0354878440DC88DE80D00F3
:1010100032487844801C03AC0DC884E80D0041F6CA
:101020009B300844372190FBF1F290FBF1F5A5F1DC
:10103000800501FB12041B3C02D56442012000E044
:101040000020DFF898A080460027FA44AAF1BE0AE3
:101050000EE0E0070AD03246684607EB470101235D
:101060000AEB810100F04DFB8DE8070064107F1C46
:10107000002CEED1194F7F44AE3F19E0E80715D0A0
:1010800007EB04100DF1180A90E80E008AE80E0034
:10109000C068F04201D1981908903246012306A990
:1010A00003A800F02EFB03AB83E807006D10641C5F
:1010B000002DE3D14FF0010332466946B8F1000F2D
:1010C00003A802D000F008FB01E000F01AFBC9E918
:1010D0000001C9F808200AB0BDE8F087903500008B
:1010E000007B00F08000704700487047B801002086
:1010F0007546FFF7F9FFAE4605006946534620F0F6
:101100000700854618B020B5FFF762F8BDE820401B
:101110004FF000064FF000074FF000084FF0000BB3
:1011200021F00701AC46ACE8C009ACE8C009ACE866
:10113000C009ACE8C0098D467047000010B5FFF744
:1011400011FD001D10BD00BFAD29000010B5044603
:10115000AFF300802046BDE81040FFF724B8000040
:101160004FF0013C50F8042B51F8043B9A4221D136
:10117000A2EB0C03934313EACC1317D150F8042BC2
:1011800051F8043B9A4215D1A2EB0C03934313EAA6
:10119000CC130BD150F8042B51F8043B9A4209D1DF
:1011A000A2EB0C03934313EACC13DBD04FF0000007
:1011B000704700BFD01A01BAB1FA81F101F01801ED
:1011C00022FA01F0CB40C1F12001DBB2C0B2C01A5B
:1011D0002CFA01F3D11A914311EAC311E6D17047F9
:1011E0005FEA400C08BF91F0000F4FEA8C234FEAF2
:1011F000C12243EA51514FEA1C5018BF00F5F0409C
:101200004FEA300018BF41F000415FEA6C5C00F02B
:101210002980BCF1FF3F08BF40F080407047130CAD
:1012200006BF12044FF0100C4FF0000C130E04BF59
:1012300012020CF1080C130F04BF12010CF1040C84
:10124000930F04BF92000CF1020CD30F04BF5200A5
:101250000CF1010C11464FF00002A0F11F00A0EBB1
:101260000C00704711F0004F08BF704731F000418B
:101270003FF4D5AF0B0C06BF09044FF0100C4FF034
:10128000000C0B0E04BF09020CF1080C0B0F04BF7D
:1012900009010CF1040C8B0F04BF89000CF1020C46
:1012A000CB0F04BF49000CF1010CCCF12003A0EBE3
:1012B0000C0022FA03F302FA0CF241EA030100F1F6
:1012C0000100704720F07F4C80EA030023F07F4745
:1012D000ACEB070303F57C5300F0004003F1FF0380
:1012E0002DE980494FEA154B09B44FEA144325EA2A
:1012F0000B4E24EA03480FF2042606EB1327490895
:101300003E785FEA320203FB0667C7F5000707FB7A
:1013100006F64FEA54374FEAD64606F1020607FBB7
:10132000066CCCF1005C4FEA1C472CEA074C07FB2B
:1013300006F40CFB06F504EB15464FEA961634BF8F
:1013400000204FF000404FEAD13706FB07FC4FEA80
:101350001C4C0CFB0BF7D21B03FB0CF761EB0701DA
:101360000CFB0EF7B0EB074072EB17420CFB08F7D3
:1013700034BFA2EB0742B2EB074261EB17414FEAE1
:101380000C444FEA910706FB07FC4FEA1C4C0CFB90
:101390000BF7B0EBC74072EB573203FB0CF734BFCF
:1013A000A2EBC742B2EBC74261EB57310CFB0EF721
:1013B000B0EBC70072EB57720CFB08F734BFA2EB1F
:1013C000C702B2EBC70261EB5771039F4FEA81611D
:1013D00041EA921104EBCC044FEAD1374FEA826222
:1013E00006FB07FC42EA90124FEA80604FEA1C4C71
:1013F0000CFB0BF7D21B03FB0CF761EB07010CFB9B
:101400000EF7B0EB074072EB17420CFB08F734BF46
:10141000A2EB0742B2EB074261EB17414FEA8C5552
:101420004FEA910704EB9C2406FB07FC4FEA1C4C97
:101430000CFB0BF7B0EBC74072EB573203FB0CF71A
:1014400034BFA2EBC742B2EBC74261EB57310CFB92
:101450000EF7B0EBC70072EB57720CFB08F734BF06
:10146000A2EBC702B2EBC70261EB577115EB4C253B
:101470004FEA816141EA92114FEA82624FEAD13725
:1014800042EA901206FB07FC44F100044FEA806038
:101490004FEA1C4C0CFB0BF7D21B03FB0CF761EB68
:1014A00007010CFB0EF7B0EB074072EB17420CFB89
:1014B00008F734BFA2EB0742B2EB074261EB1741DA
:1014C00015EB1C154FEA813141EA92414FEA823215
:1014D00042EA90424FEA80304FEA0C7644F1000431
:1014E00048EA03434EEA0B484FF0000EB2EB080CFB
:1014F00071EB030724BF624639464EEB0E0E4FF0E8
:10150000000B0018524149414BEB0B0BB2EB080C9E
:1015100071EB03077BF1000B24BF624639464EEBAB
:101520000E0E4FF0000B0018524149414BEB0B0BD4
:10153000B2EB080C71EB03077BF1000B24BF624692
:1015400039464EEB0E0E51EA020718BF46F001066F
:1015500016EB0E7655F1000254F1000103D5BDE8FB
:101560008901BDE80088BDE88901BDE80048B619D9
:10157000524141EB0101A3F10103704780807F7E5E
:101580007D7C7B7A797877767675747372717170F9
:101590006F6E6E6D6C6C6B6A6A69686867666665AB
:1015A0006464636362616160605F5F5E5E5D5D5C39
:1015B0005C5B5B5A5A5959585857575656555555AA
:1015C0005454535352525251515050504F4F4F4E0A
:1015D0004E4D4D4D4C4C4C4B4B4B4A4A4A49494958
:1015E000484848474747474646464545454444449A
:1015F000444343434342424242414141002B9C46C3
:1016000030D477002BD01CB54FEA370703B44FF026
:1016100010004FF01001BAF1000F06D0BCF1000F1E
:10162000DCBF40F0080040F008014FF000000FBCA4
:10163000BDE810400BF1010BBBF1010F08BF5FEAE1
:10164000170722BF12F1010211F101014FF0004111
:1016500043F1000300F0004043EA00007047F9D373
:101660005708D0E746EA064613F1400F4FEA164600
:101670001FDD13F1200FDFBF16430A460021203380
:101680005B42BED0C3F1200746EA064602FA07F7DE
:101690004FEA164646EA0706C3F1200722FA03F28C
:1016A00001FA07F721FA03F14FF0000342EA0702BB
:1016B000A7E746EA020646EA06464FEA164646EA23
:1016C0000106BCBF46EA0646360C4FF000034FF059
:1016D00000024FF0000194E72DE9804C9A469346B2
:1016E00070B491E8380007C831EA400C48BF34EACA
:1016F000430C03D5FFF7E6FDFFF780FFF0BCBDE824
:10170000008C2DE9804C9A46934670B491E83800DD
:1017100007C810F0804F08BF13F0804F03D100F0CE
:1017200005F8FFF76BFFF0BCBDE8008C20F07F47A9
:1017300080EA030023F07F4C07EB0C03A3F57C53F6
:1017400000F00040A3F1FE0392F0000F00F0B38020
:1017500095F0000F00F077802DE901494FEA114024
:101760004FEA144621EA004800FB06FC24EA06473B
:1017700008FB06F607FB08F800FB07F718EB06481E
:101780004CEB164C4FEA124B18EB07484FEA154644
:101790004CEB174022EA0B4E0BFB06FC25EA0647F2
:1017A0000EFB06F607FB0EFE0BFB07F71EEB064EC5
:1017B0004CEB164C4FF000061EEB074E4CEB174B54
:1017C00018EB0B0840F1000018EB0E0B58EB00086B
:1017D00040F100008F1A4FF000013CBFC943661B67
:1017E00014BFB5EB040C00213CBFC943F61B4FEA04
:1017F00017444EEA8E0E27EA04454FEA1C4704FBC5
:1018000007622CEA074C05FB07F70CFB05F604FB07
:101810000CFC16EB074642EB174216EB0C4642EB6C
:101820001C421BEB060658EB0202414146EA9E06AB
:1018300001D5BDE80189B619524141EB0101A3F17F
:101840000103BDE801894FEA14454FEA114724EA34
:10185000054621EA074C05FB07F406FB07F70CFBDE
:1018600006F105FB0CFC11EB074144EB17444FEA72
:10187000124711EB0C4144EB1C4422EA074C05FBD8
:1018800007F206FB07F70CFB06F605FB0CFC16EB54
:10189000074642EB174216EB0C4642EB1C456A1812
:1018A00054F1000148BF7047B619524141EB0101A4
:1018B000A3F10103704795F0000F37D04FEA1142B2
:1018C0004FEA144721EA024624EA074C02FB07F1DB
:1018D00006FB07F70CFB06F402FB0CFC14EB0744B9
:1018E00041EB17414FEA154714EB0C4441EB1C4107
:1018F00025EA074C02FB07F506FB07F70CFB06F68B
:1019000002FB0CFC16EB074645EB174516EB0C46A5
:1019100045EB1C42121951F1000148BF7047B6193E
:10192000524141EB0101A3F1010370474FEA144515
:101930004FEA114724EA054621EA074C05FB07F167
:1019400006FB07F70CFB06F24FF0000605FB0CFC4C
:1019500012EB074241EB174112EB0C4251EB1C41D9
:1019600048BF7047921841EB0101A3F10103704792
:101970000029816802D041F0010101E021F001015C
:10198000816070470D4910B5884202D1012144158C
:101990000AE00B49884202D10121041504E00949FB
:1019A00088420AD10121CC03204601F07FF820466D
:1019B000BDE81040002101F079B810BD00240140BD
:1019C00000280140003C0140014600208968490789
:1019D00000D501207047C06C80B2704702460020DD
:1019E00012680A4200D00120704701460020896831
:1019F000090700D50120704710B542680E4B0C79DD
:101A00001A400B6842EA04221343436083680B4A7E
:101A10001340D1E9024222434C7943EA44031A437A
:101A20008260C26A097C22F47002491EC9B242EA8D
:101A30000151C16210BD0000FFFEF0FFFDF7F1FF94
:101A400070B5072409290AD9C568A1F10A0606EB71
:101A50004606B440A543B3401D43C56007E0056991
:101A600001EB4106B440A543B3401D4305611F236C
:101A7000072A09D2446B521E02EB820293409C4318
:101A800091400C43446370BD0D2A09D2046BD21FF0
:101A900002EB820293409C4391400C43046370BD6F
:101AA000C46A0D3A02EB820293409C4391400C437E
:101AB000C46270BD816841F00801816070470029EF
:101AC000816802D041F4A00101E021F4A00181600D
:101AD0007047816841F00401816070472DE9F05F33
:101AE00000F0D0FE04460068DFF808A44FF4FA774F
:101AF0004FF0C80940F6B83B4FF496780026FE4DEB
:101B00000028606817D00028A0686AD00028E06824
:101B100076D00028EE6074D0C8206E6001F0B6FC6C
:101B200000F014FC642001F0B1FC00F0ABFE006892
:101B3000002867D00BE10028A0680BD00028E068DF
:101B400072D00028EE6070D000F000FC2068002801
:101B50006CD087E20028DFF8A483E06810D000286A
:101B6000EE6076D000F0F2FBC5E90167296808460F
:101B700002F0F4FA504500DDAE604FF04140B8E0AD
:101B800038B1C5E90368C5E90167686A0168B1B39E
:101B900054E04FF47A70C5E901606FF00101286AE2
:101BA00002F07FFC2861E868401CE8601E28D0DB5A
:101BB00000F0CCFB1E20E86000F064FE0068002806
:101BC000C7D100F05FFE40680028C2D100F05AFE85
:101BD00080680028BDD100F055FEC0680028EBD019
:101BE00040E280B1C5E902961E206E6001F04EFC15
:101BF00020680028ADD0606800287CD032E229E05F
:101C000038E05CE196E0E0680028A2D1BC48C5E974
:101C10000360C5E90167686A016879B9416800290C
:101C2000816804D021B909E035E00DE207E129B966
:101C3000C06818B9B348C5F80890286129680846F3
:101C400002F08CFA504501DD3220A8602869286234
:101C500008E251E041680029816801D011B9EDE73F
:101C60000029EBD1C0680028E8D1A748C5F8089042
:101C70002861E3E70028B3D1EE6000F067FBC5E917
:101C800001672968084602F069FA504500DDAE6038
:101C90004FF082402DE078B1C5E902960F206E60CA
:101CA00001F0F4FB2068002860687DD0002897D000
:101CB000A068002879D0D5E1EE6000F047FBC5E9C7
:101CC00001672968084602F049FA504501DDC5F868
:101CD00008908E482861686A016800298ED04168A2
:101CE00000298BD18168002988D1C068002885D15E
:101CF00083482861B6E137E100F028FBC5E90167B8
:101D00002968084602F02AFA504501DDC5F8089016
:101D10007F482861686A0168002999D141680029D3
:101D200096D18168002993D1C068002890D0C5F869
:101D3000108097E100F0A6FD406840B900F0A2FDD8
:101D4000806820B900F09EFDC068002876D0C820C9
:101D500001F09CFB00F0DEF94FF4FA6750B1012866
:101D600004D0022828D0032866D144E040F2DC5099
:101D7000A86061E0404601F089FB3946584600F012
:101D8000D6FA404601F082FB00F07CFD0068002896
:101D9000FAD100F077FD40680028F5D000F072FD20
:101DA00080680028F0D001E00DE112E100F06AFD4A
:101DB000C0680028E8D13FE0404601F067FB594683
:101DC000384600F0A5FA404601F060FB00F05AFDED
:101DD00000680028FAD100F055FD40680028F5D0D1
:101DE00000F050FD80680028F0D000F04BFDC06886
:101DF0000028EBD120E0404601F048FB40F6C4103B
:101E0000014600F094FA4FF4C87001F03FFB00BFA8
:101E100000F038FD00680028FAD100F033FD40687A
:101E20000028F5D000F02EFD80680028F0D000F0EA
:101E300029FDC0680028EBD12E6013E193E06068B3
:101E4000002867D0A068002864D0E068002861D02E
:101E5000C82001F01BFB00F079FAC82001F016FB46
:101E600000F010FD006800287DD100F00BFD4068F7
:101E7000002878D100F006FD8068002873D100F0BA
:101E800001FDC06800286ED140F2DC51584600F0D8
:101E90004EFA00BF00F0F6FC00680028FAD100F00E
:101EA000F1FC40680028F5D000F0ECFC80680028C8
:101EB000F0D000F0E7FCC0680028EBD1B8E000F0FB
:101EC00045FA6E60206828B3606818B3A06808B34C
:101ED000E068F8B9C82001F0D9FA00F037FAC82054
:101EE00001F0D4FA00F0CEFC006800283BD100F0ED
:101EF000C9FC10E00000C842240000200000A0C07F
:101F00000000A0400000C0400000C0C000006040D1
:101F1000000060C05CE04068002824D100F0B2FC02
:101F2000806800281FD100F0ADFCC06800281AD1DD
:101F3000594640F2DC5000F0EBF900BF00F0A2FC83
:101F400000680028FAD100F09DFC40680028F5D018
:101F500000F098FC80680028F0D000F093FCC06886
:101F60000028EBD164E078E0A06888B3212001F07C
:101F70008DFA2068002870D0606800286DD1A068B4
:101F800000286AD0E068002867D000F0DFF94046FA
:101F900001F07CFA5846594600F0BAF900F072FC9C
:101FA00000680028FAD100F06DFC40680028F5D0E8
:101FB00000F068FC80680028F0D000F063FCC06886
:101FC0000028EBD134E018B1A06808B9E06810B976
:101FD00048E0E06870BB212001F058FA2068002832
:101FE000606828D000286AD0A068002867D1E0681F
:101FF000002864D100F0AAF9404601F047FA58469B
:10200000594600F094F900BF00F03CFC006800283D
:10201000FAD100F037FC40680028F5D000F032FC1F
:1020200080680028F0D000F02DFCC0680028EBD1BB
:10203000C5F8088016E0002841D0A06800283ED1ED
:10204000E06800283BD0D5E72E606868401C6860D7
:102050003C2803DC4FF4AF6002E030E04FF4C8608E
:102060002E61A8606C6200F0B3F8A968081AA86134
:1020700000F0AEF8A968134C0844E861A9696FF054
:102080006303A14201DC224605E0002901DA1A4679
:1020900000E064220A44AA61A04200DC204640F627
:1020A000C411E8618A4201DB0A4603E0002A00DB32
:1020B00064231A44AA61884200DB0846E861BDE84F
:1020C000F09F000018FCFFFF38B50121042000F04C
:1020D000E1FC0120ADF8000010208DF80300032082
:1020E000054C8DF802006946204600F0A9F901214F
:1020F000204600F02CFA38BD0008014001210148BB
:1021000000F025BA000801400121014800F01DBA85
:102110000008014070B500F083FD4FF47A7420464A
:1021200001F0B4F900F05EFA064600F073FD2046B7
:1021300001F0ACF900F056FA054600F0C7FD204664
:1021400001F0A4F900F04EFA044600F069FD4FF4E6
:10215000FA7001F09BF90A48864201DD012070BD4A
:10216000854203DD844201DD032070BD21462846FF
:1021700001F0C0FF01D2002070BD022070BD000040
:1021800000004842014801F051B8000091210008C8
:1021900000B589B0694601F01FFB20B104A0FEF72D
:1021A0002BF809B000BD684601F0A4F9F9E700007A
:1021B000436F6D6D616E642070617273696E67202C
:1021C0006661696C65642E0A00000000FEE700008D
:1021D0002DE9F047174CDFF85090144F2569DFF8D0
:1021E00050802946206801F0FFFD20600646284601
:1021F000616902F07FF80146404601F0AFFF80467A
:102200003146384601F0AAFF06462946484601F005
:10221000A5FF314601F0E8FD414601F0E5FD01F082
:1022200019FF6561BDE8F0870000F04200009841A9
:10223000000090412400002010B500F023FB074C63
:10224000616A884201D0FFF749FCA06900F026F8D6
:10225000E069BDE8104000F03FB800002400002015
:1022600010B5044600F0A0FA00F07AFC204600F019
:1022700095FA2046BDE8104000F06CBC10B504464D
:1022800000F0A2FA00F07AFC032094FBF0F000F0DA
:1022900085FA2046BDE8104000F05CBC10B5040093
:1022A00003D400F091FA204602E000F07DFA60428B
:1022B000BDE8104000F072BA10B5044600F084FA90
:1022C00000F05CFC204600F069FA032094FBF0F07B
:1022D000BDE8104000F03EBC10B5040003D400F08F
:1022E0004DFC204602E000F03BFC6042BDE810409F
:1022F00000F030BC10B5044600F066FA00F03EFC79
:10230000204600F04BFA2046BDE8104000F022BC09
:1023100070B50D46044600F047FA00F02FFC204649
:1023200000F03CFA2846BDE8704000F013BC70B5E0
:102330000D46044600F048FA00F012FC204600F07A
:102340002DFA2846BDE8704000F004BC10B500F03E
:102350004BFA00F021FC002000F020FABDE810400C
:10236000002000F0F7BB70472DE9F04188B0012153
:1023700040F2044000F08EFB00248DF81740032645
:102380002D4D8DF816604FF01008ADF8148005A99A
:10239000284600F055F84020ADF8140005A928465D
:1023A00000F04EF82020ADF8140005A9284600F0F2
:1023B00047F84FF4804000F057FB204F3846FFF7B6
:1023C000E1FA4FF46020CDE9020401208DF80440C9
:1023D0008DF8100000948DF8054069463846FFF7E7
:1023E0000BFB01213846FFF7C3FA3846FFF762FBC3
:1023F0003C462046FFF7F9FA0028FAD12046FFF7BD
:1024000068FB2046FFF7E0FA0028FAD101210420FA
:1024100000F040FB8DF81B808DF81A600220ADF8AB
:10242000180006A9284600F00BF80221284600F003
:102430008EF808B0BDE8F081000801400028014096
:10244000F0B5CA78002502F00F03D20601D58A78CC
:1024500013430A784FF00F0E12F0FF0F4FF00102F6
:102460001CD004680F8802FA05F63740B74211D134
:102470004FEA850C0EFA0CF724EA070703FA0CF46E
:102480003C43CF78282F02D0482F02D002E046618B
:1024900000E006616D1C082DE4D304600C88FF2C5D
:1024A0001ED944685FF0000606F1080702FA07F536
:1024B0000F882F40AF420FD14FEA860C0EFA0CF76F
:1024C000BC4303FA0CF73C43CF78282F00D1456179
:1024D000CF78482F00D10561761C082EE4D34460E4
:1024E000F0BD0000F0B5144C002801DAE36900E00B
:1024F0006368420D120185B2C0F301579540C0F3E5
:102500000346032F05D0C2020AD50322B2409343EB
:1025100007E023F07062636823F07063636002E099
:10252000AB4343F0706201B12A43002801DAE26153
:10253000F0BD6260F0BD00000000014002460020D6
:1025400092680A4200D001207047416170470161E2
:102550007047000010B5042000F00EF8054C2080F4
:10256000062000F009F86080052000F005F8A08042
:1025700010BD00004C00002010B50B4C012301469B
:102580001A462046FFF75CFA01212046FFF797FA2A
:1025900002212046FFF722FA0028F9D02046BDE8A4
:1025A0001040FFF718BA00000028014010B50C4C8D
:1025B0000146072301222046FFF742FA0121204667
:1025C000FFF77DFA02212046FFF708FA0028F9D02C
:1025D0002046FFF700FABDE8104001F077BD00008B
:1025E0000024014070B5144C4FF4004529462046A4
:1025F000FFF7ADFF0F2000F063FF29462046FFF7ED
:10260000A4FFA51429462046FFF798FF0028F9D01B
:1026100000F098FD29462046FFF790FF0128F9D0E9
:1026200000F08AFD00F072FD01F050FDBDE8704041
:10263000024901F04DBC0000000801400000684262
:1026400070B501218AB0084600F018FA0121052072
:1026500000F020FA01213E48FFF744FF10208DF8DA
:102660000300C002ADF800003A4D03248DF802408B
:1026700069462846FFF7E4FE48208DF80300A814B9
:10268000ADF800008DF8024069462846FFF7D8FEF5
:10269000EE04304600F007FC0024ADF80A40632049
:1026A000ADF80800ADF806404720ADF804008DF8FD
:1026B0000C4001A9304600F0D1FC0121304600F069
:1026C000C1FB01221146304600F0E5FB4FF4A0604B
:1026D00000F044F91C208DF81C0001258DF81F50D6
:1026E0008DF81D408DF81E4007A800F005F9002167
:1026F000304600F0ADFB0121022000F0BFF9ADF83B
:10270000164041F28730ADF81240ADF8140041F6A2
:102710001F40114CADF8100004A9204600F09EFCAB
:1027200001221146204600F0B6FB0121204600F0B0
:102730008FFB1D208DF820008DF821508DF8225040
:102740008DF8235008A800F0D7F80AB070BD00003B
:10275000000230000008014000040040FEE70000D5
:1027600038B501210C2000F095F98020ADF800006B
:1027700010208DF8030003248DF8024069460548B7
:10278000FFF75EFEADF8004069460348FFF758FECC
:1027900038BD000000080140000C014081B2014832
:1027A00000F054BC0008004010B5064C4FF4007116
:1027B0002046FFF7CAFEA1152046BDE81040FFF7EE
:1027C000C6BE0000000C014010B5064C4FF400716D
:1027D0002046FFF7BCFEA1152046BDE81040FFF7DC
:1027E000B4BE0000000C014010B5064C4FF400715F
:1027F0002046FFF7AAFEA1152046BDE81040FFF7CE
:10280000A4BE0000000C0140F8B50121102000F02A
:1028100041F90121082000F03DF94FF48040ADF866
:1028200000000424154E8DF8034001258DF8025058
:1028300069463046FFF704FEE002ADF800008DF86F
:1028400003408DF8025069463046FFF7F9FD6003FA
:10285000ADF800008DF803408DF80250694630460F
:10286000FFF7EEFDA002ADF800008DF803408DF8F3
:10287000025069460248FFF7E3FDF8BD0010014031
:10288000000C014070B5184D4FF480412846FFF709
:1028900055FE012801D0012000E00020134C4FF428
:1028A000005120602846FFF749FE012801D0012091
:1028B00000E0002060604FF400412846FFF73EFE34
:1028C000012801D0012000E00020A0604FF48051D9
:1028D0000748FFF733FE012801D0012000E0002067
:1028E000E060024870BD0000001001407C00002044
:1028F000000C0140FEE7704770B50F23C4780178E3
:102900000122F4B1144C2468457804F4E064C4F561
:10291000E064240AC4F10406E3408478B5401C4016
:102920002C4301F1E021230181F80034007800F00C
:102930001F018A404009800000F1E020C0F800211A
:1029400070BD01F01F0082404809800000F1E020C6
:10295000C0F8802170BD00000CED00E00249084382
:1029600002490860704700000000FA050CED00E025
:102970007047000010B50020FFF718FE0446002045
:10298000FFF714FE214601F02FFA04460020FFF75E
:102990000DFE214601F028FA04460020FFF706FE4E
:1029A000214601F021FA6FF0010101F07AFD094999
:1029B00001F0D4FB01F0ECF94FF06632064B01F068
:1029C000E9F86FF00B0201F03EFDBDE8104001F0A8
:1029D000A7B800000000404066660A4070B586B0A7
:1029E00001214FF4017000F055F80125ADF81450A5
:1029F00000248DF8174003208DF8160005A918480B
:102A0000FFF71EFDE80300F02FF8164E3046FEF7E4
:102A1000B9FF4FF46020CDE902048DF80440009422
:102A20008DF805408DF8105069463046FEF7E4FFFA
:102A300001213046FEF79CFF3046FFF73BF8344655
:102A40002046FEF7D2FF0028FAD12046FFF741F8D2
:102A50002046FEF7B9FF0028FAD106B070BD00008D
:102A60000008014000240140034A516821F440411C
:102A7000014351607047000000100240044A0029E1
:102A8000D16901D0014300E08143D161704700006A
:102A900000100240044A0029916901D0014300E07E
:102AA000814391617047000000100240044A0029F0
:102AB000D16801D0014300E08143D160704700003C
:102AC0000010024030B51F494A6812F00C031E4A3C
:102AD00003D0042B01D0082B21D002604A680F23B9
:102AE0001A4C03EA1212A35C0268DA4042604B6897
:102AF000072505EA1323E35C22FA03F383604B689E
:102B000005EAD323E35CDA40C2604968032303EAA1
:102B10009131231F595CB2FBF1F1016130BD4A686C
:102B20004B6802F470124FF0020413F4803F04EB80
:102B3000924202D04B689B0301D5054B00E0024B4B
:102B40005A43CAE70010024000127A0056000020E3
:102B500000093D0081B2014800F076BA000800404B
:102B600010B5054C10212046FFF7EFFC2046BDE8CC
:102B700010402021FFF7EBBC000C014010B5054CC4
:102B800010212046FFF7E3FC2046BDE8104020213D
:102B9000FFF7DBBC000C014010B5054C10212046AE
:102BA000FFF7D3FC2046BDE810402021FFF7CDBC45
:102BB000000C0140704700002DE9F041A0B006462E
:102BC000DDE926781C461546084601F0E1F88DE857
:102BD00023000DF10C0C33468CE8900105A2642112
:102BE00006A8FDF715FB06A800F026FB20B0BDE8FF
:102BF000F0810000243457442C43534225642C5068
:102C000056252E31662C25642C25642C25642C2514
:102C1000642300001721014800F01ABA002C01407B
:102C20000F21014800F014BA002C014030B589B0E2
:102C300001210420FFF72EFF18208DF81F004FF40C
:102C40000064ADF81C4003208DF81E0007A91D4844
:102C5000FFF7F6FB01212046FFF71CFF04A800F058
:102C60004BFA0024ADF8124041F61F40ADF81000B9
:102C7000C720154DADF8140004A9284600F0EEF960
:102C8000684600F0D7F96020ADF800000120ADF8EB
:102C90000200ADF80840ADF806406946284600F04D
:102CA00097F90121284600F0DDF80121284600F0BF
:102CB000CFF80121284600F0D5F8FFF7B1FF09B0A1
:102CC00030BD000000080140002C014007210148F0
:102CD00000F0BEB9002C01400CB50021264801913E
:102CE0000091026842F4803202604FF4A0630268EF
:102CF00002F400320092019A521C0192009A12B919
:102D0000019A9A42F3D10268920333D501210091CE
:102D10001A490A6842F010020A600A6822F00302A7
:102D20000A600A6842F002020A6041684160416834
:102D30004160416841F480614160416821F47C1147
:102D40004160416841F4E8114160016841F08071DF
:102D5000016001688901FCD5416821F003014160EF
:102D6000416841F0020141604168C1F381010229DB
:102D7000FAD10CBD00910CBD0010024000200240B1
:102D80004FF0E0210428086903D020F00400086116
:102D9000704740F00400FAE7704700000F4810B594
:102DA000016841F00101016041680D4A1140416034
:102DB00001680C4A11400160016821F48021016022
:102DC000416821F4FE0141604FF41F018160FFF76B
:102DD00083FF05494FF00060086010BD00100240FD
:102DE0000000FFF8FFFFF6FE08ED00E010B501213E
:102DF0008C07204600F043F8012809D105490868EE
:102E0000401C08602046BDE81040012100F01DB8BC
:102E100010BD00002000002010B5084C0121204604
:102E200000F02DF8002807D00121204600F00DF811
:102E3000FFF7D8FB0249086010BD00000004004005
:102E40001C000020C94301827047C94301827047BA
:102E50000029018802D041F0010101E021F00101C7
:102E600001807047002930F8441F02D041F400412E
:102E700001E0C1F30E0101807047808C704702466B
:102E80000020138A92890B4202EA010202D0002A32
:102E900000D001207047002A828901D00A4300E057
:102EA0008A4382817047018921F0070101817047BF
:102EB00030B5028C22F001020284028C8388048BDC
:102EC00022F0020224F073050C882C430D8915436F
:102ED0004A882A43114DA8420BD0114DA84208D070
:102EE000104DA84205D0104DA84202D00F4DA84267
:102EF0000DD122F008054A8923F440732A4322F0B9
:102F000004058A882A438D891D43CB892B438380FE
:102F10000483C9888186028430BD0000002C0140F2
:102F2000003401400040014000440140004801409D
:102F3000028B22F008020A430283704770B5028CAC
:102F400022F010020284028C8488038B0D8823F403
:102F5000E6464FF6FF7303EA052535430E8922F056
:102F6000200203EA061616434A8803EA0212324395
:102F7000104EB04202D0104EB04215D122F0800661
:102F80004A8924F4406403EA0212324322F04006E4
:102F90008A8803EA021232438E8903EA86062643B0
:102FA000CC8903EA8404344384800583C98801877B
:102FB000028470BD002C014000340140028B4FF6AA
:102FC000FF7322F4006203EA012111430183704779
:102FD00070B5028C22F480520284048C8288838B28
:102FE0000D8823F4E6464FF6FF7303EA05253543C3
:102FF00024F400560C8903EA043434434E8803EA6F
:1030000006362643094CA04202D0094CA04205D105
:1030100022F480448A8903EA8212224382808583D3
:10302000C988A0F84010068470BD0000002C014043
:10303000003401400021018041808180C1800181F4
:1030400041818181C18170478186704701877047C6
:10305000A0F84010704781847047000030B50288A6
:103060001B4B1C4C98420DD0A0420BD0B0F1804FAE
:1030700008D0194DA84205D0184DA84202D0184DCD
:10308000A84203D122F070054A882A43154DA84270
:1030900006D0154DA84203D022F44075CA882A43B1
:1030A00002808A8882850A88028598420AD0A042D6
:1030B00008D00E4A904205D00D4A904202D00D4AE7
:1030C000904201D1097A01860121818230BD000040
:1030D000002C014000340140000400400008004082
:1030E000000C00400010004000140040004001406F
:1030F00000440140004801404FF6FF7181800021EB
:103100000180C180418001727047000070B509489C
:1031100004686420444305072846FFF7AEFE0444D4
:1031200000212846FFF797FF322000F0AFF9204634
:1031300070BD00002000002000214FF08040FFF70C
:1031400087BE000010B54FF0804400212046FFF7F5
:1031500082FF0449002008602046BDE8104001219C
:10316000FFF776BE2000002070B5154C40F22551C7
:10317000204600F088F800280ED0204600F010F914
:10318000C2B2104801880B0406D44C044FF000036F
:1031900006D50A2A01D0038070BD41F400410DE03C
:1031A0000D2A09D0C1F30D04074D491C89B22A55D7
:1031B0000180C729EFD870BD41F48041018070BD06
:1031C000003801406C000020F000002070B5144C65
:1031D00040F22551204600F056F800281CD0204629
:1031E00000F0DEF80F4CC1B22429A06815D0632886
:1031F00012D20D4E3154401CA06023290CD1002561
:103200003554616809B130468847A0683554616813
:1032100009B105488847A56070BD0028E9D070BD98
:10322000004400406C0000208C00002001494860F0
:10323000704700006C00002070B50446084D0AE09D
:103240008021284600F018F80028F9D014F8011B56
:10325000284600F0A9F820780028F1D170BD0000C0
:10326000004400400029818902D041F4005101E06E
:1032700021F40051818170470246002012880A42E1
:1032800000D00120704730B501F01F020124002555
:10329000C1F3421304FA02F2012B0FD0022B0FD01C
:1032A000838A4FEA11210088134204FA01F400EAEC
:1032B000040001D000B10125284630BD8389F0E724
:1032C000038AEEE710B5C1F3421301F01F04012198
:1032D000A140012B07D0022B07D01430002A02682E
:1032E00005D00A4304E00C30F8E71030F6E78A43D3
:1032F000026010BD30B50446008A85B00D464CF61C
:10330000FF710840E98801432182A1894EF6F3103C
:103310000140A8882A8910436A890A431043A08182
:10332000A08A4FF6FF410840A9890143A18268465F
:10333000FFF7C8FB1948844201D1039800E00298C6
:10334000A189090400EBC00101EB0010296801D537
:10335000490000E08900B0FBF1F06422B0FBF2F11B
:1033600009010B096FF018056B4300EB8300A3897B
:103370001D044FF0320306D503EBC000B0FBF2F0A2
:1033800000F0070005E003EB0010B0FBF2F000F0E6
:103390000F000843208105B030BD00000038014017
:1033A0008088C0F308007047C1F30801818070472E
:1033B000FEE7000038B501210820FFF76BFB4FF452
:1033C0004C74ADF8004010208DF8030003200A4D26
:1033D0008DF8020069462846FFF732F82146284654
:1033E000FFF7B3F801210920FFF754FB012103483F
:1033F000FFF778F838BD0000000C014000023000F3
:1034000002210148FFF7A1B800080140022101484C
:10341000FFF79DB800080140490050EAC12018BFDD
:1034200004204A0D18BF40F0010040F2FF72B2EBD9
:10343000515F08BF40F00200012808BF0520704717
:1034400030380A2801D201207047002070477047A9
:1034500010B56FF00400FFF793FC094809490068B4
:10346000B0FBF1F0C1B2084801EB41020170C2EBC0
:10347000C1114FF6FF7202EAC101418010BD000088
:103480000800002000127A00660000200B494988DD
:1034900048434FF0E021486100228A61086940F00A
:1034A000010008610869C30701D0C003FAD50869A3
:1034B00020F0010008618A6170470000660000206A
:1034C0000B49097848434FF0E021486100228A61A6
:1034D000086940F0010008610869C30701D0C00312
:1034E000FAD5086920F0010008618A617047000080
:1034F0006600002001684FF4FA60012907D0022914
:1035000007D0032909D0042909D0FEF71FBFFEF711
:10351000F1BE40F2DC50FEF7A3BEFEF7AFBEFEF7F1
:10352000CBBE000004490A885206FCD5024AC1B24B
:10353000121D118070470000003801401CB50121A8
:103540009C48FEF7CFFFFFF783FFFFF779F8FFF7FF
:1035500007F9FEF717FEFFF72DFF00234FF4E150A8
:103560000246194600F036FA4FF4165000F098F96A
:10357000FFF74AF9FFF732FAFFF7FCF98E4D686062
:10358000FEF7A2FDFFF752FBFEF7EEFE8C4E8B48D6
:103590008C4FDFF83482DFF834B240F2DC5A4FF05F
:1035A0000009306028881E2841D0401C28803068DF
:1035B000B84241DAFEF7CAFE00221146012000F0AF
:1035C00047F940F6B830FFF761FF0024FEF79CFD95
:1035D0006420FFF75BFFFEF791FD0121306800F0EA
:1035E00060FF00F053FD80B2FFF750FF641C032C16
:1035F000ECDB40F6C4100146FEF799FE4FF4C870AC
:10360000FFF744FFFFF73EF900680028FAD1FFF703
:1036100039F940680028F5D0FFF734F980680028B0
:10362000F0D0FFF72FF9C0680028EBD1BAE7FEF71A
:1036300091FFA5F80090BAE7654C4FF460602188CF
:10364000814207D8B8F80010814203D8BBF80010B7
:10365000814275D9FEF758FD01210022084600F08D
:10366000F7F8FEF773FE4FF47A70FFF70FFF584834
:10367000BBF800100088814207D801200090504616
:103680005146FEF754FE444612E00020009050469A
:103690005146FEF73DFE444602E000BFFEF75AFFEA
:1036A0002088B0F57F6FF9D306E000BFFEF752FF28
:1036B0002088B0F57F6FF9D34FF49660FEF71AFEBD
:1036C0004FF4C860FFF7E2FEFEF740FEFFF798FEFA
:1036D0005FF000044CF25030FFF7D8FE641C082C59
:1036E000F8DBFFF793FEFEF709FD4FF49660FEF757
:1036F000B7FD4FF4C860FFF7C9FE00985146002897
:1037000050461ED0FEF704FEFFF7BCF80068002804
:10371000FAD1FFF7B7F840680028F5D0FFF7B2F804
:1037200080680028F0D0FFF7ADF8C0680028EBD122
:103730002749A1F80090A8F80090ABF8009031E775
:1037400017E0FEF7F4FD00BFFFF79CF800680028C3
:10375000FAD1FFF797F840680028F5D0FFF792F804
:1037600080680028F0D0FFF78DF8C0680028EBD102
:10377000DEE7184C002201212046FFF78CFB0022D7
:103780000121104600F064F8FEF7A8F9FEF754FD99
:10379000306800F05FFCCDF800900023CDF8049075
:1037A0001A466968FFF708FA012211462046FFF71A
:1037B00072FBF7E6000230000000002000004842E3
:1037C0001C0000200000B8414E00002050000020E6
:1037D0004C0000200004004070B50546007888B019
:1037E0000C464FF0FF3624281DD12846FCF7B2FEC8
:1037F000284410F8010C232815D104F120031A1FC6
:10380000111F0DF10C0C081F8CE80F00021F0C3962
:103810000C388DE80700231D224605A12846FCF739
:10382000D5FD092802D0304608B070BD0020FBE766
:103830002425642C25642C25642C25642C25642CDB
:1038400025642C25642C25642C25642300000000AD
:1038500070B5114E0D46002814464FF00201304657
:1038600002D0FEF774FE01E0FEF76FFE4FF001019B
:10387000304615B1FEF76BFE01E0FEF766FE074825
:103880004FF080011CB1BDE87040FEF760BEBDE89E
:103890007040FEF75ABE0000000C014000080140D5
:1038A0002DE9F04F044687B0012144F20400FFF7F0
:1038B000F1F84FF40070ADF8100003258DF81250A8
:1038C00018278DF8137004A93F48FEF7B9FD4FF48F
:1038D0008060ADF8100004268DF8136004A93A4802
:1038E000FEF7AEFD25208DF814008DF815508DF8EB
:1038F00016504FF001088DF8178005A8FEF7FCFF61
:1039000000940024DFF8C4A0ADF80440ADF80840EE
:103910004FF00C09ADF80640ADF80C40ADF80A9038
:1039200069465046FFF7E6FC40F2255B0122594606
:103930005046FFF7C7FC01215046FFF793FC0121D9
:103940000420FFF7A7F801214804FFF797F8ADF826
:1039500010608DF813708DF8125004A91A48FEF704
:103960006FFD0820ADF810008DF8136004A916480B
:10397000FEF766FD4FF41650154D0090ADF804406B
:10398000ADF80840ADF80640ADF80C40ADF80A902F
:1039900069462846FFF7AEFC26208DF814008DF806
:1039A00015408DF816408DF8178005A8FEF7A4FF86
:1039B000012259462846FFF785FC01212846FFF7DA
:1039C00051FC07B0BDE8F08F00080140003801400D
:1039D000004400402DE9FF4F0C46074689B093464E
:1039E00001210420FFF74AF88020ADF81C001825BB
:1039F000DFF8CCA08DF81F5003268DF81E6007A9B4
:103A00005046FEF71DFDADF810400024DFF8B490DD
:103A1000ADF81470ADF81640ADF8124004A9484650
:103A2000FFF71CFB6027ADF800704FF00108ADF800
:103A30000280ADF80840ADF8064069464846FFF7F9
:103A40007DFA08214846FFF7B9FA01214846FFF7F9
:103A5000FFF901210420FFF711F801210920FFF7E8
:103A600019F84020ADF81C008DF81F508DF81E602D
:103A700007A95046FEF7E4FC0C98ADF81000ADF82D
:103A800014B0ADF81640ADF8124004A94846FFF74F
:103A9000E5FAADF80070ADF80280ADF80840ADF879
:103AA000064069464846FFF703FA08214846FFF7F3
:103AB0003FFA01214846FFF7CBF90DB0BDE8F08F82
:103AC000000C01400008004010B500290AD0087819
:103AD000002807D005487844FDF742FB002801D0B4
:103AE000002010BD0248784410BD0000FE0A00000E
:103AF000F60A000010B500290AD00878002807D07F
:103B000005487844FDF72CFB002801D0002010BDAB
:103B10000248784410BD0000EE0A0000E60A0000EA
:103B200021F00042A2F16052B2F5801F01F0004383
:103B300028BFD2F17F6C0BD95FEA001C43EAC202B6
:103B400042EB507018BF704728BF20F0010070474B
:103B5000B2F5801FBCBF184670474FEA410C1CF5F8
:103B6000001F02D2084600F0C0BB70B500F0BCF8E0
:103B700000000089FFF7F6BF4FF00040A0F580007D
:103B80007047000002494FF0000000F02ABC00BF5F
:103B90000000F87FDFF848C170B51CEA111E1EBF97
:103BA0001CEA13159EEA0C0F95EA0C0F00F06F80CB
:103BB00081EA030423EA4C134EEAD47E21EA4C1135
:103BC00041F4801143F48013AE44A1FB024CA0FBEE
:103BD0000365AEF17F7E361955EB0C05A1FB034C56
:103BE0004CF10003A0FB021C16EB0C06654153F1DF
:103BF0000003094218BF46F0010613F4007F0BD101
:103C00004FEA03314FEA0530340341EA155140EAE7
:103C100016506FF003020AE04FEAC3214FEAC520B5
:103C2000F40241EA555140EA56506FF0020202EBAD
:103C30002E4201EB025585EACE710AD05FEA440CB0
:103C400018BF24F0004450F1000041F1000120EAC7
:103C5000D47040F2FE7C624500D270BDA84214BF11
:103C60004FF080444FF04044002E08BF0024BEF1C6
:103C7000806FA8BFA1F1C041BDE8704080F2828092
:103C80004FF0000001F1C04101F0004170479EEA91
:103C90000C0F0CEA131518BF95EA0C0F06D04FF065
:103CA000000081EA030E0EF0004170BD00F01CF828
:103CB0008900013E00F007B800F009B84FEA430C54
:103CC0005FEA5C5C08D081EA030100F05BB84FEA70
:103CD000410C5FEA5C5CF6D14FF00000014970478F
:103CE0000000FF070000F87F0EF1020E2EF0030E19
:103CF0005EF8046B364205D4012A43EB030515F543
:103D0000001F12D8012841EB010C1CF5001F0CD834
:103D10000ED14FEAD17C15F5001F0CEB4C0C0CF1C9
:103D2000020C08BF4CEBD37C04E04FF0080C01E020
:103D30004FEAD37C0CEB4C0526FA05F606F0070695
:103D4000B6F1040C06D20EEB860CBDE870404CF0C8
:103D5000010C6047DFE80CF0090B02024FF0004154
:103D60004FF00000A1F5002170BD19461046012852
:103D700051EB010418BFD4F5001484BF002001F0FA
:103D8000004170BD0808A0F500114FEA31017047ED
:103D900043004FEAD30C4FEA3C0C43401FBF40079F
:103DA0000CF1605113F0FE4F70471CF0006F03D10F
:103DB00000200CF0004170470CF0004343EA5070C3
:103DC00010B540EACC0000F04AFA00BF00000092B3
:103DD0004FEA0001FFF7D6BF4FF000414FF000005F
:103DE000A1F500217047000090EA010F48BF81F063
:103DF000004100F18682421A3CBF801A89184FEABE
:103E0000D0524FF07F4C1CEA410FA2EBD15318BFA8
:103E10009CEA026F00F03B804FF0004C4CEA00201F
:103E20004CEA012121FA03FC10EB0C0C1ED202F12A
:103E3000FF325FEA1C2040EBC25038BF70471CF0D5
:103E40007F0F4FEA400C18BFBCF17F4F38BF70475F
:103E5000C3F12003994008BF20F00100BCF17F4F5F
:103E600038BF7047A0F1C04000F03FBA4FEA3C00B5
:103E7000000A40EBC25028BF1CF0FF0F4FEA400C75
:103E8000E6D018BFBCF17F4F38BF7047EAE79CEA25
:103E9000026F05D010EA5C0F08BF00F000407047C9
:103EA00010B500F0DCF900BF64FBBE3E014800F035
:103EB00098BA00BF0000C07F401058BFC0F140401A
:103EC000491058BFC1F140418142EFF30080704773
:103ED0004FF47F0C1CEAD0121EBF1CEAD11392EAE9
:103EE0000C0F93EA0C0F00F0858090EA010F48BF99
:103EF00042F4807240F4000C41F400002CF07F4149
:103F000020F07F4000B58142A2EB03020FF2081CB3
:103F1000ACEB504EC0F100009EF800E04FEA4E0EB0
:103F200000FB0EFC38BF49004FEA2C1C02F5FA02D8
:103F30000CFB0EF34FEACE1E4FEA112C4FEAC121C3
:103F40000EEB635E42EB22420EFB0CFC4FEA1C536D
:103F500000FB03114FEA112C4FEA01310EFB0CFC60
:103F60004FEADC4C00FB0C11C14228BF09184CEB96
:103F700003335DF804EB10EB410143EBC250B2F5A3
:103F80007C0F38BF704729D512F0F00F1CBF00F12D
:103F9000C04000F00040704700818283848586879E
:103FA00088898B8C8D8E8F919293959697999A9CF8
:103FB0009D9FA0A2A3A5A7A8AAACAEB0B2B3B5B767
:103FC000B9BCBEC0C2C5C7C9CCCED1D4D7D9DCDF3D
:103FD000E2E6E9ECF0F3F7FAFE0000004FEA400CED
:103FE0000CF1807CBCF17E4F28BF7047B0F1C0401F
:103FF00000F07BB990EA010F0CEAD11348BF42F4FC
:104000008072624538BF634507D213F47F0F16D024
:1040100080EA010000F00040704710B500F01FF981
:10402000097EFC3E00F005B880EA010000F0004087
:10403000704780EA010000F0004000F056B912F429
:104040007F0F04BF0248704780EA010000F04DB9BD
:104050000000C07F41000B0ED3F19E0208D950F43E
:1040600000034FEA032323FA02F048BF404270479F
:1040700010B500F0F4F800BF49922480002070478A
:104080006FF0004282EA200070470000C10DD1F1BC
:104090009E0206DB4FEA002343F0004323FA02F0BE
:1040A0007047004207D54FEA4001B1F1FE4F02D2FE
:1040B0004FF00000704710B500F0D1F8499224800D
:1040C000002070476FEA200070470000B0FA80F3CC
:1040D00010FA03F2C3F19D030AD0D90501EB1220B7
:1040E000530638BF704700F1010008BF20F00100FF
:1040F0007047000050EA010C00F113801CF5000F1E
:1041000058BFBCF5000F01D48842704707D710F59F
:10411000000F58BF11F5000F15D48842704789422F
:1041200070471CF5000F04D5BCF5000FF7D5814290
:1041300070474FF0807C1CEB400F38BF1CEB410FE9
:1041400001D28142704710B500F089F892244900ED
:104150004FF000504FF08051FFF7AEBE4FF47F0C90
:104160001CEAD0121EBF1CEAD11392EA0C0F93EA8C
:104170000C0F00F0478090EA010F48BF42F48072B4
:104180004FF0004C4CEA00204CEA012102EB030204
:10419000A0FB0113A2F50002002918BF43F00103A0
:1041A0005B0028BF4FEA330342EB22425FEA132C45
:1041B0004CEBC2502EBFBCEB436FB2F57C0F704787
:1041C0004FEA036CBCF1004F08BF20F00100B2F5CC
:1041D0007C0F38BF70470BD582F0FF0212F5803F8D
:1041E000C8BF704700F1C040D8BF00F00040704722
:1041F00000F5000C5FEA4C0C48BF7047B0F1C040BE
:1042000000F073B890EA010F0CEAD11348BF42F4F2
:104210008072624538BF634504D280EA010000F035
:104220000040704710B500F01AF800BF8900013E49
:1042300000F007B800F009B85FEA410C5FEA1C6CB7
:1042400008D080EA010000F050B85FEA400C5FEA55
:104250001C6CF6D14FF00040A0F5800070470EF1C5
:10426000020E2EF0030E5EF8044B244204D44FEAF3
:104270004102B2F17F4F11D84FEA4003B3F17F4FB3
:104280000CD80ED14FEAD07CB2F17F4F0CEB4C0C26
:104290000CF1020C08BF4CEBD17C04E04FF0080C91
:1042A00001E04FEAD17C0CEB4C0324FA03F404F058
:1042B0000704B4F1040C06D20EEB840CBDE81040E8
:1042C0004CF0010C6047DFE80CF0070802024FF0E9
:1042D0000040A0F5800010BD0846420018BFD2F192
:1042E000807288BF00F0004010BDFF2141EAD0502D
:1042F000C005704790EA010F48BF81F000413FF5CB
:104300007AAD421A04D882F00042A0EB02001144B8
:104310004FEAD0524FF07F4C1CEA410FA2EBD15331
:1043200018BF9CEA026F4AD04FF0004C4CEA0020C4
:104330004CEA012121FA03FCB0EB0C0C0FD412F073
:10434000FE0F36D05FEA4C001DD5001240EBC25084
:1043500038BF70471CF03F0F18BF70470BE0A2F149
:1043600001025FEA1C2040EBC25038BF70471CF0CE
:104370007F0F18BF7047C3F12003994014BF401E40
:1043800020F00100704780084FEA122308BF7047F1
:10439000B0FA80FCA2EB0C02CCF1280C60FA0CF015
:1043A00093EA122F04BF00EBC25070474FEAC3706C
:1043B0007047130A5FEADC1008BF7047F6E79CEA13
:1043C000026F04D010EA5C0F08BF0020704710B5E0
:1043D000FFF745FF40DFF63E81F000407047FCF7F5
:1043E0000EBA0CF00F03092B08BF082000F07F80E5
:1043F0000A2B0BD0082B18BF704708BF1CF0400FCA
:104400000AD04FF000004FF0000170471CF0400F41
:1044100018BF4FF0004070471CF0100F08D020F07C
:10442000704300F07F4242EAD3014FEA4370704785
:1044300000F0604021F07F4242EA000201F07F403C
:1044400040EA727070474FF0FF0C4CF4E06C1CEACD
:1044500011531CBF9CEA030C9445C2BFDA4201EB26
:1044600002517047002B0DD0BCF1000F0FD0002A75
:1044700001F00041A4BF41F0E04141F07F614FF005
:104480000000704701F000414FF00000704750EA13
:1044900001334FF09B0C18BF4CF0806C7FF472AB73
:1044A00070474FF0FF0212EAD0521CBF92F0FF0398
:1044B0008B42C2BFD14200EBC1507047002A0AD0E4
:1044C000002B0BD0002900F00040A4BF40F0FE40BC
:1044D00040F40000704700F00040704743024FF086
:1044E0000B0C18BF4CF0806C7FF4E0AC70471CF4F0
:1044F000801F11D01CF4E02F03D06FEACC314900AB
:1045000070474FF04050EFF3008222F0704242EAD1
:10451000000282F3008870474FF0000070470000EF
:1045200002400000000000A0000000000540000064
:10453000000000C8000000000C4000000000409C8B
:1045400000000000194000000020BCBE0000000078
:1045500034400000BFC91B8E00000004B5400000BD
:10456000504BCFD06607E2CF010000006C41000045
:104570003E8251AADFEEA73401000000D9420000BC
:10458000DCB5A0E23A301F97FFFFFFFFB445000003
:10459000FD25A0C8E9A3C14FFFFFFFFFFF3F0000BB
:1045A0000000008000000000FF3F000000000080CD
:1045B0000000000000470008000000207C00000010
:1045C000280100087C4700087C0000209C070000B0
:1045D000440100081C00000043000000F8FFFFFF3A
:1045E0000C0000000E0000000F0000002E00000074
:1045F0001001000043000000F8FFFFFF00404040B2
:1046000040404040404041414141414040404040A5
:104610004040404040404040404040404005020251
:104620000202020202020202020202020220202010
:10463000202020202020200202020202020290906C
:10464000909090901010101010101010101010106A
:1046500010101010101010100202020202028888BE
:1046600088888888080808080808080808080808CA
:1046700008080808080808080202020240000000B2
:10468000000000000000000000000000000000002A
:10469000000000000000000000000000000000001A
:1046A000000000000000000000000000000000000A
:1046B00000000000000000000000000000000000FA
:1046C00000000000000000000000000000000000EA
:1046D00000000000000000000000000000000000DA
:1046E00000000000000000000000000000000000CA
:1046F00000000000000000000000000000000000BA
:10470000000000000000000000A24A0400000000B9
:104710000000000001020304060708090000FA4334
:10472000000000000000000000000000B0040000D5
:104730000000000000000000000000000000000079
:104740000000000000000000000000000000000069
:104750000000020406080000000001020304010238
:104760000304060708090000000000000000000024
:0C4770000000000000000000000000003D
:04000005080000ED02
:00000001FF
